{
  "contractName": "GamblerContractUpgradable",
  "abi": [
    {
      "anonymous": false,
      "inputs": [
        {
          "indexed": false,
          "internalType": "address",
          "name": "player",
          "type": "address"
        },
        {
          "indexed": false,
          "internalType": "uint256",
          "name": "balance",
          "type": "uint256"
        }
      ],
      "name": "AddGainEvent",
      "type": "event"
    },
    {
      "anonymous": false,
      "inputs": [
        {
          "indexed": false,
          "internalType": "address",
          "name": "player",
          "type": "address"
        },
        {
          "indexed": false,
          "internalType": "uint256",
          "name": "amount",
          "type": "uint256"
        }
      ],
      "name": "BalanceChange",
      "type": "event"
    },
    {
      "anonymous": false,
      "inputs": [],
      "name": "ContractFundedByOwner",
      "type": "event"
    },
    {
      "anonymous": false,
      "inputs": [
        {
          "indexed": false,
          "internalType": "uint8",
          "name": "version",
          "type": "uint8"
        }
      ],
      "name": "Initialized",
      "type": "event"
    },
    {
      "anonymous": false,
      "inputs": [
        {
          "indexed": true,
          "internalType": "address",
          "name": "previousOwner",
          "type": "address"
        },
        {
          "indexed": true,
          "internalType": "address",
          "name": "newOwner",
          "type": "address"
        }
      ],
      "name": "OwnershipTransferred",
      "type": "event"
    },
    {
      "anonymous": false,
      "inputs": [],
      "name": "ReceivedFunds",
      "type": "event"
    },
    {
      "anonymous": false,
      "inputs": [
        {
          "indexed": false,
          "internalType": "address",
          "name": "player",
          "type": "address"
        },
        {
          "indexed": false,
          "internalType": "uint256",
          "name": "balance",
          "type": "uint256"
        }
      ],
      "name": "SubstractLostEvent",
      "type": "event"
    },
    {
      "inputs": [
        {
          "internalType": "address",
          "name": "",
          "type": "address"
        }
      ],
      "name": "balances",
      "outputs": [
        {
          "internalType": "uint256",
          "name": "",
          "type": "uint256"
        }
      ],
      "stateMutability": "view",
      "type": "function",
      "constant": true
    },
    {
      "inputs": [],
      "name": "currentBudgetOfContract",
      "outputs": [
        {
          "internalType": "uint256",
          "name": "",
          "type": "uint256"
        }
      ],
      "stateMutability": "view",
      "type": "function",
      "constant": true
    },
    {
      "inputs": [],
      "name": "owner",
      "outputs": [
        {
          "internalType": "address",
          "name": "",
          "type": "address"
        }
      ],
      "stateMutability": "view",
      "type": "function",
      "constant": true
    },
    {
      "inputs": [],
      "name": "renounceOwnership",
      "outputs": [],
      "stateMutability": "nonpayable",
      "type": "function"
    },
    {
      "inputs": [
        {
          "internalType": "address",
          "name": "newOwner",
          "type": "address"
        }
      ],
      "name": "transferOwnership",
      "outputs": [],
      "stateMutability": "nonpayable",
      "type": "function"
    },
    {
      "inputs": [],
      "name": "initialize",
      "outputs": [],
      "stateMutability": "nonpayable",
      "type": "function"
    },
    {
      "inputs": [],
      "name": "fundProprietaryBudgetOfContract",
      "outputs": [],
      "stateMutability": "payable",
      "type": "function",
      "payable": true
    },
    {
      "inputs": [],
      "name": "deposit",
      "outputs": [],
      "stateMutability": "payable",
      "type": "function",
      "payable": true
    },
    {
      "inputs": [
        {
          "internalType": "uint256",
          "name": "amount",
          "type": "uint256"
        }
      ],
      "name": "addGain",
      "outputs": [],
      "stateMutability": "payable",
      "type": "function",
      "payable": true
    },
    {
      "inputs": [
        {
          "internalType": "uint256",
          "name": "amount",
          "type": "uint256"
        }
      ],
      "name": "substractLost",
      "outputs": [],
      "stateMutability": "payable",
      "type": "function",
      "payable": true
    },
    {
      "inputs": [],
      "name": "withDraw",
      "outputs": [],
      "stateMutability": "payable",
      "type": "function",
      "payable": true
    },
    {
      "inputs": [
        {
          "internalType": "address",
          "name": "user",
          "type": "address"
        }
      ],
      "name": "withdrawUser",
      "outputs": [],
      "stateMutability": "payable",
      "type": "function",
      "payable": true
    },
    {
      "inputs": [],
      "name": "getBalance",
      "outputs": [
        {
          "internalType": "uint256",
          "name": "",
          "type": "uint256"
        }
      ],
      "stateMutability": "view",
      "type": "function",
      "constant": true
    },
    {
      "inputs": [],
      "name": "getTotalBalanceInContract",
      "outputs": [
        {
          "internalType": "uint256",
          "name": "",
          "type": "uint256"
        }
      ],
      "stateMutability": "view",
      "type": "function",
      "constant": true
    },
    {
      "inputs": [],
      "name": "getCurrentBudgetOfContract",
      "outputs": [
        {
          "internalType": "uint256",
          "name": "",
          "type": "uint256"
        }
      ],
      "stateMutability": "view",
      "type": "function",
      "constant": true
    },
    {
      "inputs": [],
      "name": "selfDestruct",
      "outputs": [],
      "stateMutability": "nonpayable",
      "type": "function"
    }
  ],
  "bytecode": "0x608060405234801561001057600080fd5b50611625806100206000396000f3fe6080604052600436106100f35760003560e01c80639cb8a26a1161008a578063d02db05211610059578063d02db05214610272578063d0e30db01461028e578063e4ef638214610298578063f2fde38b146102c3576100f3565b80639cb8a26a146101f8578063b62d4b211461020f578063b97fe02a1461023a578063cee80b3514610256576100f3565b80633f415541116100c65780633f41554114610174578063715018a61461019f5780638129fc1c146101b65780638da5cb5b146101cd576100f3565b806304355954146100f85780630fdb1c101461010257806312065fe01461010c57806327e235e314610137575b600080fd5b6101006102ec565b005b61010a610333565b005b34801561011857600080fd5b506101216103a0565b60405161012e9190610f18565b60405180910390f35b34801561014357600080fd5b5061015e60048036038101906101599190610f96565b6103e7565b60405161016b9190610f18565b60405180910390f35b34801561018057600080fd5b506101896103ff565b6040516101969190610f18565b60405180910390f35b3480156101ab57600080fd5b506101b4610409565b005b3480156101c257600080fd5b506101cb61041d565b005b3480156101d957600080fd5b506101e2610563565b6040516101ef9190610fd2565b60405180910390f35b34801561020457600080fd5b5061020d61058d565b005b34801561021b57600080fd5b50610224610682565b6040516102319190610f18565b60405180910390f35b610254600480360381019061024f9190611019565b610688565b005b610270600480360381019061026b9190611019565b6107b7565b005b61028c60048036038101906102879190610f96565b610923565b005b610296610aa3565b005b3480156102a457600080fd5b506102ad610ba5565b6040516102ba9190610f18565b60405180910390f35b3480156102cf57600080fd5b506102ea60048036038101906102e59190610f96565b610bad565b005b34606660008282546102fe9190611075565b925050819055507f3f97c21afc269ab362675e4fa557f139cf4da896b59609e039adeeb21911613860405160405180910390a1565b3073ffffffffffffffffffffffffffffffffffffffff1663d02db052336040518263ffffffff1660e01b815260040161036c9190610fd2565b600060405180830381600087803b15801561038657600080fd5b505af115801561039a573d6000803e3d6000fd5b50505050565b6000606560003373ffffffffffffffffffffffffffffffffffffffff1673ffffffffffffffffffffffffffffffffffffffff16815260200190815260200160002054905090565b60656020528060005260406000206000915090505481565b6000606654905090565b610411610c30565b61041b6000610cae565b565b60008060019054906101000a900460ff1615905080801561044e5750600160008054906101000a900460ff1660ff16105b8061047b575061045d30610d74565b15801561047a5750600160008054906101000a900460ff1660ff16145b5b6104ba576040517f08c379a00000000000000000000000000000000000000000000000000000000081526004016104b19061114e565b60405180910390fd5b60016000806101000a81548160ff021916908360ff16021790555080156104f7576001600060016101000a81548160ff0219169083151502179055505b6104ff610d97565b610507610de8565b80156105605760008060016101000a81548160ff0219169083151502179055507f7f26b83ff96e1f2b6a682f133852f6798a09c465da95921460cefb3847402498600160405161055791906111c0565b60405180910390a15b50565b6000603360009054906101000a900473ffffffffffffffffffffffffffffffffffffffff16905090565b610595610c30565b60005b6067805490508110156105ff576105ec606782815481106105bc576105bb6111db565b5b9060005260206000200160009054906101000a900473ffffffffffffffffffffffffffffffffffffffff16610923565b80806105f79061120a565b915050610598565b506000479050600061060f610563565b905060008173ffffffffffffffffffffffffffffffffffffffff168360405161063790611283565b60006040518083038185875af1925050503d8060008114610674576040519150601f19603f3d011682016040523d82523d6000602084013e610679565b606091505b50509050505050565b60665481565b8060665410156106cd576040517f08c379a00000000000000000000000000000000000000000000000000000000081526004016106c4906112e4565b60405180910390fd5b80606660008282546106df9190611304565b9250508190555080606560003373ffffffffffffffffffffffffffffffffffffffff1673ffffffffffffffffffffffffffffffffffffffff16815260200190815260200160002060008282546107359190611075565b925050819055507f91cb0850ee560115ebfdfd2d76f5afffdb13a45445011f9be6bf88a5ae8485a233606560003373ffffffffffffffffffffffffffffffffffffffff1673ffffffffffffffffffffffffffffffffffffffff168152602001908152602001600020546040516107ac929190611338565b60405180910390a150565b80606560003373ffffffffffffffffffffffffffffffffffffffff1673ffffffffffffffffffffffffffffffffffffffff168152602001908152602001600020541015610839576040517f08c379a0000000000000000000000000000000000000000000000000000000008152600401610830906113d3565b60405180910390fd5b80606560003373ffffffffffffffffffffffffffffffffffffffff1673ffffffffffffffffffffffffffffffffffffffff16815260200190815260200160002060008282546108889190611304565b9250508190555080606660008282546108a19190611075565b925050819055507f2f0df1e3b5d7193c02489f8177404260854bba479d5512f7f51d7e5148b1e71d33606560003373ffffffffffffffffffffffffffffffffffffffff1673ffffffffffffffffffffffffffffffffffffffff16815260200190815260200160002054604051610918929190611338565b60405180910390a150565b60006066541015610969576040517f08c379a0000000000000000000000000000000000000000000000000000000008152600401610960906112e4565b60405180910390fd5b6000606560008373ffffffffffffffffffffffffffffffffffffffff1673ffffffffffffffffffffffffffffffffffffffff1681526020019081526020016000205490506000606560008473ffffffffffffffffffffffffffffffffffffffff1673ffffffffffffffffffffffffffffffffffffffff1681526020019081526020016000208190555060008273ffffffffffffffffffffffffffffffffffffffff1682604051610a1890611283565b60006040518083038185875af1925050503d8060008114610a55576040519150601f19603f3d011682016040523d82523d6000602084013e610a5a565b606091505b5050905080610a9e576040517f08c379a0000000000000000000000000000000000000000000000000000000008152600401610a959061143f565b60405180910390fd5b505050565b34606560003373ffffffffffffffffffffffffffffffffffffffff1673ffffffffffffffffffffffffffffffffffffffff1681526020019081526020016000206000828254610af29190611075565b92505081905550610b0233610e49565b610b6a576067339080600181540180825580915050600190039060005260206000200160009091909190916101000a81548173ffffffffffffffffffffffffffffffffffffffff021916908373ffffffffffffffffffffffffffffffffffffffff1602179055505b7f07b05dda14be236904a87f2818f6f1979eee34ca6f67fc5d014b048e9ccc6c6b3334604051610b9b929190611338565b60405180910390a1565b600047905090565b610bb5610c30565b600073ffffffffffffffffffffffffffffffffffffffff168173ffffffffffffffffffffffffffffffffffffffff1603610c24576040517f08c379a0000000000000000000000000000000000000000000000000000000008152600401610c1b906114d1565b60405180910390fd5b610c2d81610cae565b50565b610c38610ef7565b73ffffffffffffffffffffffffffffffffffffffff16610c56610563565b73ffffffffffffffffffffffffffffffffffffffff1614610cac576040517f08c379a0000000000000000000000000000000000000000000000000000000008152600401610ca39061153d565b60405180910390fd5b565b6000603360009054906101000a900473ffffffffffffffffffffffffffffffffffffffff16905081603360006101000a81548173ffffffffffffffffffffffffffffffffffffffff021916908373ffffffffffffffffffffffffffffffffffffffff1602179055508173ffffffffffffffffffffffffffffffffffffffff168173ffffffffffffffffffffffffffffffffffffffff167f8be0079c531659141344cd1fd0a4f28419497f9722a3daafe3b4186f6b6457e060405160405180910390a35050565b6000808273ffffffffffffffffffffffffffffffffffffffff163b119050919050565b600060019054906101000a900460ff16610de6576040517f08c379a0000000000000000000000000000000000000000000000000000000008152600401610ddd906115cf565b60405180910390fd5b565b600060019054906101000a900460ff16610e37576040517f08c379a0000000000000000000000000000000000000000000000000000000008152600401610e2e906115cf565b60405180910390fd5b610e47610e42610ef7565b610cae565b565b600080600090505b606780549050811015610eec578273ffffffffffffffffffffffffffffffffffffffff1660678281548110610e8957610e886111db565b5b9060005260206000200160009054906101000a900473ffffffffffffffffffffffffffffffffffffffff1673ffffffffffffffffffffffffffffffffffffffff1603610ed9576001915050610ef2565b8080610ee49061120a565b915050610e51565b50600090505b919050565b600033905090565b6000819050919050565b610f1281610eff565b82525050565b6000602082019050610f2d6000830184610f09565b92915050565b600080fd5b600073ffffffffffffffffffffffffffffffffffffffff82169050919050565b6000610f6382610f38565b9050919050565b610f7381610f58565b8114610f7e57600080fd5b50565b600081359050610f9081610f6a565b92915050565b600060208284031215610fac57610fab610f33565b5b6000610fba84828501610f81565b91505092915050565b610fcc81610f58565b82525050565b6000602082019050610fe76000830184610fc3565b92915050565b610ff681610eff565b811461100157600080fd5b50565b60008135905061101381610fed565b92915050565b60006020828403121561102f5761102e610f33565b5b600061103d84828501611004565b91505092915050565b7f4e487b7100000000000000000000000000000000000000000000000000000000600052601160045260246000fd5b600061108082610eff565b915061108b83610eff565b9250827fffffffffffffffffffffffffffffffffffffffffffffffffffffffffffffffff038211156110c0576110bf611046565b5b828201905092915050565b600082825260208201905092915050565b7f496e697469616c697a61626c653a20636f6e747261637420697320616c72656160008201527f647920696e697469616c697a6564000000000000000000000000000000000000602082015250565b6000611138602e836110cb565b9150611143826110dc565b604082019050919050565b600060208201905081810360008301526111678161112b565b9050919050565b6000819050919050565b600060ff82169050919050565b6000819050919050565b60006111aa6111a56111a08461116e565b611185565b611178565b9050919050565b6111ba8161118f565b82525050565b60006020820190506111d560008301846111b1565b92915050565b7f4e487b7100000000000000000000000000000000000000000000000000000000600052603260045260246000fd5b600061121582610eff565b91507fffffffffffffffffffffffffffffffffffffffffffffffffffffffffffffffff820361124757611246611046565b5b600182019050919050565b600081905092915050565b50565b600061126d600083611252565b91506112788261125d565b600082019050919050565b600061128e82611260565b9150819050919050565b7f6e6f7420656e6f75676820746f6b656e20696e20636f6e747261637400000000600082015250565b60006112ce601c836110cb565b91506112d982611298565b602082019050919050565b600060208201905081810360008301526112fd816112c1565b9050919050565b600061130f82610eff565b915061131a83610eff565b92508282101561132d5761132c611046565b5b828203905092915050565b600060408201905061134d6000830185610fc3565b61135a6020830184610f09565b9392505050565b7f6e6f7420656e6f75676820746f6b656e20696e20706c617965722062616c616e60008201527f6365000000000000000000000000000000000000000000000000000000000000602082015250565b60006113bd6022836110cb565b91506113c882611361565b604082019050919050565b600060208201905081810360008301526113ec816113b0565b9050919050565b7f4661696c75726520746f20776974686472617700000000000000000000000000600082015250565b60006114296013836110cb565b9150611434826113f3565b602082019050919050565b600060208201905081810360008301526114588161141c565b9050919050565b7f4f776e61626c653a206e6577206f776e657220697320746865207a65726f206160008201527f6464726573730000000000000000000000000000000000000000000000000000602082015250565b60006114bb6026836110cb565b91506114c68261145f565b604082019050919050565b600060208201905081810360008301526114ea816114ae565b9050919050565b7f4f776e61626c653a2063616c6c6572206973206e6f7420746865206f776e6572600082015250565b60006115276020836110cb565b9150611532826114f1565b602082019050919050565b600060208201905081810360008301526115568161151a565b9050919050565b7f496e697469616c697a61626c653a20636f6e7472616374206973206e6f74206960008201527f6e697469616c697a696e67000000000000000000000000000000000000000000602082015250565b60006115b9602b836110cb565b91506115c48261155d565b604082019050919050565b600060208201905081810360008301526115e8816115ac565b905091905056fea26469706673582212206fbb84b3d3e7acbb9e50a9f2ea8763566dc09b3daed98420e63bb9cbdda4df8064736f6c634300080f0033",
  "immutableReferences": {},
  "source": "// SPDX-License-Identifier: MIT\r\npragma solidity >=0.8.0 <0.9.0;\r\n\r\nimport \"@openzeppelin/contracts-upgradeable/proxy/utils/Initializable.sol\";\r\nimport \"@openzeppelin/contracts-upgradeable/access/OwnableUpgradeable.sol\";\r\n\r\n\r\ncontract GamblerContractUpgradable is Initializable, OwnableUpgradeable {\r\n    // address public owner;\r\n    mapping(address => uint256) public balances;\r\n    uint public currentBudgetOfContract;\r\n    address[] playersAddresses;\r\n\r\n    event ReceivedFunds();\r\n    event ContractFundedByOwner();\r\n    event BalanceChange(address player, uint amount);\r\n    event AddGainEvent(address player, uint balance);\r\n    event SubstractLostEvent(address player, uint balance);\r\n\r\n    // constructor() payable{\r\n    //     owner = msg.sender;\r\n    //     currentBudgetOfContract = msg.value;\r\n    // }\r\n\r\n    // Upgradable contracts need an an initialize function rather than a constructor.\r\n\r\n    function initialize() initializer public {\r\n        __Context_init_unchained();\r\n        __Ownable_init_unchained();\r\n    }\r\n\r\n    // modifier isOwner {\r\n    //     require(msg.sender == owner);\r\n    //     _;\r\n    // }\r\n\r\n    \r\n\r\n    function fundProprietaryBudgetOfContract() public payable {\r\n        currentBudgetOfContract += msg.value;\r\n        emit ContractFundedByOwner();\r\n    }\r\n\r\n    function deposit() external payable {\r\n        balances[msg.sender] += msg.value;\r\n        if(!exist(msg.sender)){\r\n            playersAddresses.push(msg.sender);\r\n        }\r\n        emit BalanceChange(msg.sender, msg.value);\r\n    }\r\n\r\n    function addGain(uint amount) public payable{\r\n        require(currentBudgetOfContract >= amount, \"not enough token in contract\");\r\n        currentBudgetOfContract -= amount;\r\n        balances[msg.sender] += amount;\r\n        emit AddGainEvent(msg.sender, balances[msg.sender]);\r\n    }\r\n\r\n    function substractLost(uint amount) public payable{\r\n        require(balances[msg.sender] >= amount, \"not enough token in player balance\");\r\n        balances[msg.sender] -= amount;\r\n        currentBudgetOfContract += amount;\r\n        emit SubstractLostEvent(msg.sender, balances[msg.sender]);\r\n    }\r\n\r\n    function withDraw() public payable{ \r\n        this.withdrawUser(msg.sender);\r\n    }\r\n    \r\n    function withdrawUser(address user) public payable{\r\n        //checks\r\n        require(currentBudgetOfContract >= 0, \"not enough token in contract\");\r\n        //effects\r\n        uint256 balanceToSend = balances[user];\r\n        balances[user] = 0;\r\n        //interactions\r\n        (bool success, ) = user.call{value:balanceToSend}(\"\");\r\n        require (success, \"Failure to withdraw\");\r\n    }\r\n\r\n    function getBalance() public view returns (uint256){\r\n        return balances[msg.sender];\r\n    }\r\n\r\n    function getTotalBalanceInContract() public view returns (uint256){\r\n        return address(this).balance;\r\n    }\r\n\r\n    function getCurrentBudgetOfContract() public view returns (uint256){\r\n        return currentBudgetOfContract;\r\n    }\r\n\r\n    /* La fonction retourne true si l'adresse est dans l'array playersAdresses\r\n       C'est une fct utilitaire qui permet d'eviter les doublons d'adresses*/\r\n    function exist(address addr) private view returns(bool){\r\n        for(uint i =0; i < playersAddresses.length; i++){\r\n            if(playersAddresses[i] == addr){\r\n                return true;\r\n            }\r\n        }\r\n        return false;\r\n    }\r\n\r\n    /* La fonction est appelable uniquement par le proprio.\r\n       Retourne les fonds des joueurs qui ont leurs addresses dans l'array\r\n       Apres le contrat s'auto detruit*/\r\n    function selfDestruct() public onlyOwner  {\r\n        for(uint i =0; i < playersAddresses.length; i++){\r\n            withdrawUser(playersAddresses[i]);\r\n        }\r\n        // selfdestruct(payable(msg.sender)); //selfdestruct not allowed in upgradable contracts\r\n        uint256 remainingFunds = address(this).balance;\r\n        address owner_ = owner();\r\n        (bool success, ) = owner_.call{value:remainingFunds}(\"\");\r\n    }\r\n}",
  "sourcePath": "C:\\Othm\\UDEM_COURS\\IFT4100\\smart-contract\\contracts\\GamblerContractUpgradable.sol",
  "compiler": {
    "name": "solc",
    "version": "0.8.15+commit.e14f2714.Emscripten.clang"
  },
  "schemaVersion": "3.4.7",
  "updatedAt": "2022-07-20T08:22:03.101Z",
  "networkType": "ethereum",
  "devdoc": {
    "kind": "dev",
    "methods": {
      "owner()": {
        "details": "Returns the address of the current owner."
      },
      "renounceOwnership()": {
        "details": "Leaves the contract without owner. It will not be possible to call `onlyOwner` functions anymore. Can only be called by the current owner. NOTE: Renouncing ownership will leave the contract without an owner, thereby removing any functionality that is only available to the owner."
      },
      "transferOwnership(address)": {
        "details": "Transfers ownership of the contract to a new account (`newOwner`). Can only be called by the current owner."
      }
    },
    "version": 1
  },
  "userdoc": {
    "kind": "user",
    "methods": {},
    "version": 1
  }
}