{
  "contractName": "GamblerContractUpgradable",
  "abi": [
    {
      "anonymous": false,
      "inputs": [
        {
          "indexed": false,
          "internalType": "address",
          "name": "player",
          "type": "address"
        },
        {
          "indexed": false,
          "internalType": "uint256",
          "name": "balance",
          "type": "uint256"
        }
      ],
      "name": "AddGainEvent",
      "type": "event"
    },
    {
      "anonymous": false,
      "inputs": [
        {
          "indexed": false,
          "internalType": "address",
          "name": "player",
          "type": "address"
        },
        {
          "indexed": false,
          "internalType": "uint256",
          "name": "amount",
          "type": "uint256"
        }
      ],
      "name": "BalanceChange",
      "type": "event"
    },
    {
      "anonymous": false,
      "inputs": [],
      "name": "ContractFundedByOwner",
      "type": "event"
    },
    {
      "anonymous": false,
      "inputs": [
        {
          "indexed": false,
          "internalType": "uint8",
          "name": "version",
          "type": "uint8"
        }
      ],
      "name": "Initialized",
      "type": "event"
    },
    {
      "anonymous": false,
      "inputs": [
        {
          "indexed": true,
          "internalType": "address",
          "name": "previousOwner",
          "type": "address"
        },
        {
          "indexed": true,
          "internalType": "address",
          "name": "newOwner",
          "type": "address"
        }
      ],
      "name": "OwnershipTransferred",
      "type": "event"
    },
    {
      "anonymous": false,
      "inputs": [
        {
          "indexed": false,
          "internalType": "address",
          "name": "player",
          "type": "address"
        },
        {
          "indexed": false,
          "internalType": "uint256",
          "name": "balance",
          "type": "uint256"
        }
      ],
      "name": "SubstractLostEvent",
      "type": "event"
    },
    {
      "inputs": [
        {
          "internalType": "address",
          "name": "",
          "type": "address"
        }
      ],
      "name": "balances",
      "outputs": [
        {
          "internalType": "uint256",
          "name": "",
          "type": "uint256"
        }
      ],
      "stateMutability": "view",
      "type": "function",
      "constant": true
    },
    {
      "inputs": [],
      "name": "currentBudgetOfContract",
      "outputs": [
        {
          "internalType": "uint256",
          "name": "",
          "type": "uint256"
        }
      ],
      "stateMutability": "view",
      "type": "function",
      "constant": true
    },
    {
      "inputs": [],
      "name": "owner",
      "outputs": [
        {
          "internalType": "address",
          "name": "",
          "type": "address"
        }
      ],
      "stateMutability": "view",
      "type": "function",
      "constant": true
    },
    {
      "inputs": [],
      "name": "renounceOwnership",
      "outputs": [],
      "stateMutability": "nonpayable",
      "type": "function"
    },
    {
      "inputs": [
        {
          "internalType": "address",
          "name": "newOwner",
          "type": "address"
        }
      ],
      "name": "transferOwnership",
      "outputs": [],
      "stateMutability": "nonpayable",
      "type": "function"
    },
    {
      "inputs": [],
      "name": "initialize",
      "outputs": [],
      "stateMutability": "nonpayable",
      "type": "function"
    },
    {
      "inputs": [],
      "name": "fundProprietaryBudgetOfContract",
      "outputs": [],
      "stateMutability": "payable",
      "type": "function",
      "payable": true
    },
    {
      "inputs": [],
      "name": "deposit",
      "outputs": [],
      "stateMutability": "payable",
      "type": "function",
      "payable": true
    },
    {
      "inputs": [
        {
          "internalType": "uint256",
          "name": "amount",
          "type": "uint256"
        }
      ],
      "name": "addGain",
      "outputs": [],
      "stateMutability": "payable",
      "type": "function",
      "payable": true
    },
    {
      "inputs": [
        {
          "internalType": "uint256",
          "name": "amount",
          "type": "uint256"
        }
      ],
      "name": "substractLost",
      "outputs": [],
      "stateMutability": "payable",
      "type": "function",
      "payable": true
    },
    {
      "inputs": [],
      "name": "withDraw",
      "outputs": [],
      "stateMutability": "payable",
      "type": "function",
      "payable": true
    },
    {
      "inputs": [
        {
          "internalType": "address",
          "name": "user",
          "type": "address"
        }
      ],
      "name": "withdrawUser",
      "outputs": [],
      "stateMutability": "payable",
      "type": "function",
      "payable": true
    },
    {
      "inputs": [],
      "name": "getBalance",
      "outputs": [
        {
          "internalType": "uint256",
          "name": "",
          "type": "uint256"
        }
      ],
      "stateMutability": "view",
      "type": "function",
      "constant": true
    },
    {
      "inputs": [],
      "name": "getTotalBalanceInContract",
      "outputs": [
        {
          "internalType": "uint256",
          "name": "",
          "type": "uint256"
        }
      ],
      "stateMutability": "view",
      "type": "function",
      "constant": true
    },
    {
      "inputs": [],
      "name": "getCurrentBudgetOfContract",
      "outputs": [
        {
          "internalType": "uint256",
          "name": "",
          "type": "uint256"
        }
      ],
      "stateMutability": "view",
      "type": "function",
      "constant": true
    },
    {
      "inputs": [],
      "name": "selfDestruct",
      "outputs": [],
      "stateMutability": "nonpayable",
      "type": "function"
    }
  ],
  "bytecode": "0x608060405234801561001057600080fd5b506117f2806100206000396000f3fe6080604052600436106100f35760003560e01c80639cb8a26a1161008a578063d02db05211610059578063d02db05214610272578063d0e30db01461028e578063e4ef638214610298578063f2fde38b146102c3576100f3565b80639cb8a26a146101f8578063b62d4b211461020f578063b97fe02a1461023a578063cee80b3514610256576100f3565b80633f415541116100c65780633f41554114610174578063715018a61461019f5780638129fc1c146101b65780638da5cb5b146101cd576100f3565b806304355954146100f85780630fdb1c101461010257806312065fe01461010c57806327e235e314610137575b600080fd5b6101006102ec565b005b61010a61033b565b005b34801561011857600080fd5b506101216103a8565b60405161012e9190610fe7565b60405180910390f35b34801561014357600080fd5b5061015e60048036038101906101599190611065565b6103ef565b60405161016b9190610fe7565b60405180910390f35b34801561018057600080fd5b50610189610407565b6040516101969190610fe7565b60405180910390f35b3480156101ab57600080fd5b506101b4610411565b005b3480156101c257600080fd5b506101cb610425565b005b3480156101d957600080fd5b506101e261056b565b6040516101ef91906110a1565b60405180910390f35b34801561020457600080fd5b5061020d610595565b005b34801561021b57600080fd5b50610224610692565b6040516102319190610fe7565b60405180910390f35b610254600480360381019061024f91906110e8565b610698565b005b610270600480360381019061026b91906110e8565b6107c7565b005b61028c60048036038101906102879190611065565b610933565b005b610296610b72565b005b3480156102a457600080fd5b506102ad610c74565b6040516102ba9190610fe7565b60405180910390f35b3480156102cf57600080fd5b506102ea60048036038101906102e59190611065565b610c7c565b005b6102f4610cff565b34606660008282546103069190611144565b925050819055507f3f97c21afc269ab362675e4fa557f139cf4da896b59609e039adeeb21911613860405160405180910390a1565b3073ffffffffffffffffffffffffffffffffffffffff1663d02db052336040518263ffffffff1660e01b815260040161037491906110a1565b600060405180830381600087803b15801561038e57600080fd5b505af11580156103a2573d6000803e3d6000fd5b50505050565b6000606560003373ffffffffffffffffffffffffffffffffffffffff1673ffffffffffffffffffffffffffffffffffffffff16815260200190815260200160002054905090565b60656020528060005260406000206000915090505481565b6000606654905090565b610419610cff565b6104236000610d7d565b565b60008060019054906101000a900460ff161590508080156104565750600160008054906101000a900460ff1660ff16105b80610483575061046530610e43565b1580156104825750600160008054906101000a900460ff1660ff16145b5b6104c2576040517f08c379a00000000000000000000000000000000000000000000000000000000081526004016104b99061121d565b60405180910390fd5b60016000806101000a81548160ff021916908360ff16021790555080156104ff576001600060016101000a81548160ff0219169083151502179055505b610507610e66565b61050f610eb7565b80156105685760008060016101000a81548160ff0219169083151502179055507f7f26b83ff96e1f2b6a682f133852f6798a09c465da95921460cefb3847402498600160405161055f919061128f565b60405180910390a15b50565b6000603360009054906101000a900473ffffffffffffffffffffffffffffffffffffffff16905090565b61059d610cff565b60005b606780549050811015610607576105f4606782815481106105c4576105c36112aa565b5b9060005260206000200160009054906101000a900473ffffffffffffffffffffffffffffffffffffffff16610933565b80806105ff906112d9565b9150506105a0565b5060004790506000606681905550600061061f61056b565b905060008173ffffffffffffffffffffffffffffffffffffffff168360405161064790611352565b60006040518083038185875af1925050503d8060008114610684576040519150601f19603f3d011682016040523d82523d6000602084013e610689565b606091505b50509050505050565b60665481565b8060665410156106dd576040517f08c379a00000000000000000000000000000000000000000000000000000000081526004016106d4906113b3565b60405180910390fd5b80606660008282546106ef91906113d3565b9250508190555080606560003373ffffffffffffffffffffffffffffffffffffffff1673ffffffffffffffffffffffffffffffffffffffff16815260200190815260200160002060008282546107459190611144565b925050819055507f91cb0850ee560115ebfdfd2d76f5afffdb13a45445011f9be6bf88a5ae8485a233606560003373ffffffffffffffffffffffffffffffffffffffff1673ffffffffffffffffffffffffffffffffffffffff168152602001908152602001600020546040516107bc929190611407565b60405180910390a150565b80606560003373ffffffffffffffffffffffffffffffffffffffff1673ffffffffffffffffffffffffffffffffffffffff168152602001908152602001600020541015610849576040517f08c379a0000000000000000000000000000000000000000000000000000000008152600401610840906114a2565b60405180910390fd5b80606560003373ffffffffffffffffffffffffffffffffffffffff1673ffffffffffffffffffffffffffffffffffffffff168152602001908152602001600020600082825461089891906113d3565b9250508190555080606660008282546108b19190611144565b925050819055507f2f0df1e3b5d7193c02489f8177404260854bba479d5512f7f51d7e5148b1e71d33606560003373ffffffffffffffffffffffffffffffffffffffff1673ffffffffffffffffffffffffffffffffffffffff16815260200190815260200160002054604051610928929190611407565b60405180910390a150565b6000606560003373ffffffffffffffffffffffffffffffffffffffff1673ffffffffffffffffffffffffffffffffffffffff1681526020019081526020016000205410156109b6576040517f08c379a00000000000000000000000000000000000000000000000000000000081526004016109ad9061150e565b60405180910390fd5b606560003373ffffffffffffffffffffffffffffffffffffffff1673ffffffffffffffffffffffffffffffffffffffff16815260200190815260200160002054471015610a38576040517f08c379a0000000000000000000000000000000000000000000000000000000008152600401610a2f906115a0565b60405180910390fd5b6000606560008373ffffffffffffffffffffffffffffffffffffffff1673ffffffffffffffffffffffffffffffffffffffff1681526020019081526020016000205490506000606560008473ffffffffffffffffffffffffffffffffffffffff1673ffffffffffffffffffffffffffffffffffffffff1681526020019081526020016000208190555060008273ffffffffffffffffffffffffffffffffffffffff1682604051610ae790611352565b60006040518083038185875af1925050503d8060008114610b24576040519150601f19603f3d011682016040523d82523d6000602084013e610b29565b606091505b5050905080610b6d576040517f08c379a0000000000000000000000000000000000000000000000000000000008152600401610b649061160c565b60405180910390fd5b505050565b34606560003373ffffffffffffffffffffffffffffffffffffffff1673ffffffffffffffffffffffffffffffffffffffff1681526020019081526020016000206000828254610bc19190611144565b92505081905550610bd133610f18565b610c39576067339080600181540180825580915050600190039060005260206000200160009091909190916101000a81548173ffffffffffffffffffffffffffffffffffffffff021916908373ffffffffffffffffffffffffffffffffffffffff1602179055505b7f07b05dda14be236904a87f2818f6f1979eee34ca6f67fc5d014b048e9ccc6c6b3334604051610c6a929190611407565b60405180910390a1565b600047905090565b610c84610cff565b600073ffffffffffffffffffffffffffffffffffffffff168173ffffffffffffffffffffffffffffffffffffffff1603610cf3576040517f08c379a0000000000000000000000000000000000000000000000000000000008152600401610cea9061169e565b60405180910390fd5b610cfc81610d7d565b50565b610d07610fc6565b73ffffffffffffffffffffffffffffffffffffffff16610d2561056b565b73ffffffffffffffffffffffffffffffffffffffff1614610d7b576040517f08c379a0000000000000000000000000000000000000000000000000000000008152600401610d729061170a565b60405180910390fd5b565b6000603360009054906101000a900473ffffffffffffffffffffffffffffffffffffffff16905081603360006101000a81548173ffffffffffffffffffffffffffffffffffffffff021916908373ffffffffffffffffffffffffffffffffffffffff1602179055508173ffffffffffffffffffffffffffffffffffffffff168173ffffffffffffffffffffffffffffffffffffffff167f8be0079c531659141344cd1fd0a4f28419497f9722a3daafe3b4186f6b6457e060405160405180910390a35050565b6000808273ffffffffffffffffffffffffffffffffffffffff163b119050919050565b600060019054906101000a900460ff16610eb5576040517f08c379a0000000000000000000000000000000000000000000000000000000008152600401610eac9061179c565b60405180910390fd5b565b600060019054906101000a900460ff16610f06576040517f08c379a0000000000000000000000000000000000000000000000000000000008152600401610efd9061179c565b60405180910390fd5b610f16610f11610fc6565b610d7d565b565b600080600090505b606780549050811015610fbb578273ffffffffffffffffffffffffffffffffffffffff1660678281548110610f5857610f576112aa565b5b9060005260206000200160009054906101000a900473ffffffffffffffffffffffffffffffffffffffff1673ffffffffffffffffffffffffffffffffffffffff1603610fa8576001915050610fc1565b8080610fb3906112d9565b915050610f20565b50600090505b919050565b600033905090565b6000819050919050565b610fe181610fce565b82525050565b6000602082019050610ffc6000830184610fd8565b92915050565b600080fd5b600073ffffffffffffffffffffffffffffffffffffffff82169050919050565b600061103282611007565b9050919050565b61104281611027565b811461104d57600080fd5b50565b60008135905061105f81611039565b92915050565b60006020828403121561107b5761107a611002565b5b600061108984828501611050565b91505092915050565b61109b81611027565b82525050565b60006020820190506110b66000830184611092565b92915050565b6110c581610fce565b81146110d057600080fd5b50565b6000813590506110e2816110bc565b92915050565b6000602082840312156110fe576110fd611002565b5b600061110c848285016110d3565b91505092915050565b7f4e487b7100000000000000000000000000000000000000000000000000000000600052601160045260246000fd5b600061114f82610fce565b915061115a83610fce565b9250827fffffffffffffffffffffffffffffffffffffffffffffffffffffffffffffffff0382111561118f5761118e611115565b5b828201905092915050565b600082825260208201905092915050565b7f496e697469616c697a61626c653a20636f6e747261637420697320616c72656160008201527f647920696e697469616c697a6564000000000000000000000000000000000000602082015250565b6000611207602e8361119a565b9150611212826111ab565b604082019050919050565b60006020820190508181036000830152611236816111fa565b9050919050565b6000819050919050565b600060ff82169050919050565b6000819050919050565b600061127961127461126f8461123d565b611254565b611247565b9050919050565b6112898161125e565b82525050565b60006020820190506112a46000830184611280565b92915050565b7f4e487b7100000000000000000000000000000000000000000000000000000000600052603260045260246000fd5b60006112e482610fce565b91507fffffffffffffffffffffffffffffffffffffffffffffffffffffffffffffffff820361131657611315611115565b5b600182019050919050565b600081905092915050565b50565b600061133c600083611321565b91506113478261132c565b600082019050919050565b600061135d8261132f565b9150819050919050565b7f4e6f7420656e6f7567682066756e647320696e20636f6e747261637400000000600082015250565b600061139d601c8361119a565b91506113a882611367565b602082019050919050565b600060208201905081810360008301526113cc81611390565b9050919050565b60006113de82610fce565b91506113e983610fce565b9250828210156113fc576113fb611115565b5b828203905092915050565b600060408201905061141c6000830185611092565b6114296020830184610fd8565b9392505050565b7f4e6f7420656e6f7567682066756e647320696e2074686520706c61796572277360008201527f2062616c616e6365000000000000000000000000000000000000000000000000602082015250565b600061148c60288361119a565b915061149782611430565b604082019050919050565b600060208201905081810360008301526114bb8161147f565b9050919050565b7f546865207573657227732062616c616e636520697320656d7074790000000000600082015250565b60006114f8601b8361119a565b9150611503826114c2565b602082019050919050565b60006020820190508181036000830152611527816114eb565b9050919050565b7f4e6f7420656e6f7567682066756e647320696e20636f6e74726163742e20506c60008201527f656173652074727920616761696e206c617465722e0000000000000000000000602082015250565b600061158a60358361119a565b91506115958261152e565b604082019050919050565b600060208201905081810360008301526115b98161157d565b9050919050565b7f4661696c75726520746f20776974686472617700000000000000000000000000600082015250565b60006115f660138361119a565b9150611601826115c0565b602082019050919050565b60006020820190508181036000830152611625816115e9565b9050919050565b7f4f776e61626c653a206e6577206f776e657220697320746865207a65726f206160008201527f6464726573730000000000000000000000000000000000000000000000000000602082015250565b600061168860268361119a565b91506116938261162c565b604082019050919050565b600060208201905081810360008301526116b78161167b565b9050919050565b7f4f776e61626c653a2063616c6c6572206973206e6f7420746865206f776e6572600082015250565b60006116f460208361119a565b91506116ff826116be565b602082019050919050565b60006020820190508181036000830152611723816116e7565b9050919050565b7f496e697469616c697a61626c653a20636f6e7472616374206973206e6f74206960008201527f6e697469616c697a696e67000000000000000000000000000000000000000000602082015250565b6000611786602b8361119a565b91506117918261172a565b604082019050919050565b600060208201905081810360008301526117b581611779565b905091905056fea26469706673582212209b727d3996bd22778f1bbd2d7505a921c7838aee09b17d16c5dd8d8eebe3a76164736f6c634300080f0033",
  "immutableReferences": {},
  "source": "// SPDX-License-Identifier: MIT\r\npragma solidity >=0.8.0 <0.9.0;\r\n\r\nimport \"@openzeppelin/contracts-upgradeable/proxy/utils/Initializable.sol\";\r\nimport \"@openzeppelin/contracts-upgradeable/access/OwnableUpgradeable.sol\";\r\n\r\n\r\ncontract GamblerContractUpgradable is Initializable, OwnableUpgradeable {\r\n    mapping(address => uint256) public balances;\r\n    uint public currentBudgetOfContract;\r\n    address[] playersAddresses;\r\n\r\n    event ContractFundedByOwner();\r\n    event BalanceChange(address player, uint amount);\r\n    event AddGainEvent(address player, uint balance);\r\n    event SubstractLostEvent(address player, uint balance);\r\n\r\n    // constructor() payable{\r\n    //     owner = msg.sender;\r\n    //     currentBudgetOfContract = msg.value;\r\n    // }\r\n\r\n\r\n    // For upgradable contracts following OpenZeppelin standards, constructor objects are undesired.\r\n    // They are replaced by an intializer (takes the role of the constructor).\r\n    function initialize() initializer public {\r\n        __Context_init_unchained();\r\n        __Ownable_init_unchained();\r\n    }\r\n\r\n    modifier balanceUserNotNull {\r\n        require(balances[msg.sender]>= 0, \"The user's balance is empty\");      \r\n        _;\r\n    }\r\n\r\n    function fundProprietaryBudgetOfContract() public payable onlyOwner {\r\n        currentBudgetOfContract += msg.value;\r\n        emit ContractFundedByOwner();\r\n    }\r\n\r\n    function deposit() external payable {\r\n        balances[msg.sender] += msg.value;\r\n        if(!exist(msg.sender)){\r\n            playersAddresses.push(msg.sender);\r\n        }\r\n        emit BalanceChange(msg.sender, msg.value);\r\n    }\r\n\r\n    function addGain(uint amount) public payable{\r\n        //checks-effects-interactions\r\n        require(currentBudgetOfContract >= amount, \"Not enough funds in contract\");\r\n        currentBudgetOfContract -= amount;\r\n        balances[msg.sender] += amount;\r\n        emit AddGainEvent(msg.sender, balances[msg.sender]);\r\n    }\r\n\r\n    function substractLost(uint amount) public payable{\r\n        //checks-effects-interactions\r\n        require(balances[msg.sender] >= amount, \"Not enough funds in the player's balance\");\r\n        balances[msg.sender] -= amount;\r\n        currentBudgetOfContract += amount;\r\n        emit SubstractLostEvent(msg.sender, balances[msg.sender]);\r\n    }\r\n\r\n    function withDraw() public payable{ \r\n        this.withdrawUser(msg.sender);\r\n    }\r\n    \r\n    function withdrawUser(address user) public payable balanceUserNotNull{\r\n        //checks\r\n        require(address(this).balance >= balances[msg.sender] , \"Not enough funds in contract. Please try again later.\");\r\n        //effects\r\n        uint256 balanceToSend = balances[user];\r\n        balances[user] = 0;\r\n        //interactions\r\n        (bool success, ) = user.call{value:balanceToSend}(\"\");\r\n        require (success, \"Failure to withdraw\");\r\n    }\r\n\r\n    function getBalance() public view returns (uint256){\r\n        return balances[msg.sender];\r\n    }\r\n\r\n    function getTotalBalanceInContract() public view returns (uint256){\r\n        return address(this).balance;\r\n    }\r\n\r\n    function getCurrentBudgetOfContract() public view returns (uint256){\r\n        return currentBudgetOfContract;\r\n    }\r\n\r\n    /* Utility function that returns true if the address is present in the array playerAddresses.\r\n        Used to avoid duplicates. */\r\n    function exist(address addr) private view returns(bool){\r\n        for(uint i =0; i < playersAddresses.length; i++){\r\n            if(playersAddresses[i] == addr){\r\n                return true;\r\n            }\r\n        }\r\n        return false;\r\n    }\r\n\r\n    /* Only the owner can call this method to defund the contract by : \r\n        1- sending back to each user his funds (addresses kept in the array)\r\n        2- recuperating the remaining funds */\r\n    function selfDestruct() public onlyOwner  {\r\n        for(uint i =0; i < playersAddresses.length; i++){\r\n            withdrawUser(playersAddresses[i]);\r\n        }\r\n        uint256 remainingFunds = address(this).balance;\r\n        currentBudgetOfContract=0;\r\n        address owner_ = owner();\r\n        (bool success, ) = owner_.call{value:remainingFunds}(\"\");\r\n    }\r\n}",
  "sourcePath": "C:\\Othm\\UDEM_COURS\\IFT4100\\smart-contract\\contracts\\GamblerContractUpgradable.sol",
  "compiler": {
    "name": "solc",
    "version": "0.8.15+commit.e14f2714.Emscripten.clang"
  },
  "schemaVersion": "3.4.7",
  "updatedAt": "2022-07-24T03:47:02.233Z",
  "networkType": "ethereum",
  "devdoc": {
    "kind": "dev",
    "methods": {
      "owner()": {
        "details": "Returns the address of the current owner."
      },
      "renounceOwnership()": {
        "details": "Leaves the contract without owner. It will not be possible to call `onlyOwner` functions anymore. Can only be called by the current owner. NOTE: Renouncing ownership will leave the contract without an owner, thereby removing any functionality that is only available to the owner."
      },
      "transferOwnership(address)": {
        "details": "Transfers ownership of the contract to a new account (`newOwner`). Can only be called by the current owner."
      }
    },
    "version": 1
  },
  "userdoc": {
    "kind": "user",
    "methods": {},
    "version": 1
  }
}