{
  "contractName": "GamblerToken",
  "abi": [
    {
      "inputs": [],
      "stateMutability": "payable",
      "type": "constructor"
    },
    {
      "anonymous": false,
      "inputs": [
        {
          "indexed": false,
          "internalType": "address",
          "name": "player",
          "type": "address"
        },
        {
          "indexed": false,
          "internalType": "uint256",
          "name": "balance",
          "type": "uint256"
        }
      ],
      "name": "AddGainEvent",
      "type": "event"
    },
    {
      "anonymous": false,
      "inputs": [
        {
          "indexed": false,
          "internalType": "address",
          "name": "player",
          "type": "address"
        },
        {
          "indexed": false,
          "internalType": "uint256",
          "name": "amount",
          "type": "uint256"
        }
      ],
      "name": "BalanceChange",
      "type": "event"
    },
    {
      "anonymous": false,
      "inputs": [],
      "name": "ContractFundedByOwner",
      "type": "event"
    },
    {
      "anonymous": false,
      "inputs": [],
      "name": "ReceivedFunds",
      "type": "event"
    },
    {
      "anonymous": false,
      "inputs": [
        {
          "indexed": false,
          "internalType": "address",
          "name": "player",
          "type": "address"
        },
        {
          "indexed": false,
          "internalType": "uint256",
          "name": "balance",
          "type": "uint256"
        }
      ],
      "name": "SubstractLostEvent",
      "type": "event"
    },
    {
      "inputs": [
        {
          "internalType": "address",
          "name": "",
          "type": "address"
        }
      ],
      "name": "balances",
      "outputs": [
        {
          "internalType": "uint256",
          "name": "",
          "type": "uint256"
        }
      ],
      "stateMutability": "view",
      "type": "function"
    },
    {
      "inputs": [],
      "name": "fundProprietaryBudgetOfContract",
      "outputs": [],
      "stateMutability": "payable",
      "type": "function"
    },
    {
      "inputs": [],
      "name": "deposit",
      "outputs": [],
      "stateMutability": "payable",
      "type": "function"
    },
    {
      "inputs": [
        {
          "internalType": "uint256",
          "name": "amount",
          "type": "uint256"
        }
      ],
      "name": "addGain",
      "outputs": [],
      "stateMutability": "payable",
      "type": "function"
    },
    {
      "inputs": [
        {
          "internalType": "uint256",
          "name": "amount",
          "type": "uint256"
        }
      ],
      "name": "substractLost",
      "outputs": [],
      "stateMutability": "payable",
      "type": "function"
    },
    {
      "inputs": [],
      "name": "withDraw",
      "outputs": [],
      "stateMutability": "payable",
      "type": "function"
    },
    {
      "inputs": [
        {
          "internalType": "address",
          "name": "user",
          "type": "address"
        }
      ],
      "name": "withdrawUser",
      "outputs": [],
      "stateMutability": "payable",
      "type": "function"
    },
    {
      "inputs": [],
      "name": "getBalance",
      "outputs": [
        {
          "internalType": "uint256",
          "name": "",
          "type": "uint256"
        }
      ],
      "stateMutability": "view",
      "type": "function"
    },
    {
      "inputs": [],
      "name": "getTotalBalanceInContract",
      "outputs": [
        {
          "internalType": "uint256",
          "name": "",
          "type": "uint256"
        }
      ],
      "stateMutability": "view",
      "type": "function"
    },
    {
      "inputs": [],
      "name": "getCurrentBudgetOfContract",
      "outputs": [
        {
          "internalType": "uint256",
          "name": "",
          "type": "uint256"
        }
      ],
      "stateMutability": "view",
      "type": "function"
    },
    {
      "inputs": [],
      "name": "selfDestruct",
      "outputs": [],
      "stateMutability": "nonpayable",
      "type": "function"
    }
  ],
  "bytecode": "0x6080604052336000806101000a81548173ffffffffffffffffffffffffffffffffffffffff021916908373ffffffffffffffffffffffffffffffffffffffff16021790555034600281905550610ea38061005a6000396000f3fe60806040526004361061009c5760003560e01c80639cb8a26a116100645780639cb8a26a14610148578063b97fe02a1461015f578063cee80b351461017b578063d02db05214610197578063d0e30db0146101b3578063e4ef6382146101bd5761009c565b806304355954146100a15780630fdb1c10146100ab57806312065fe0146100b557806327e235e3146100e05780633f4155411461011d575b600080fd5b6100a96101e8565b005b6100b3610287565b005b3480156100c157600080fd5b506100ca6102f4565b6040516100d79190610a25565b60405180910390f35b3480156100ec57600080fd5b5061010760048036038101906101029190610aa3565b61033b565b6040516101149190610a25565b60405180910390f35b34801561012957600080fd5b50610132610353565b60405161013f9190610a25565b60405180910390f35b34801561015457600080fd5b5061015d61035d565b005b61017960048036038101906101749190610afc565b610439565b005b61019560048036038101906101909190610afc565b610568565b005b6101b160048036038101906101ac9190610aa3565b6106d4565b005b6101bb610854565b005b3480156101c957600080fd5b506101d2610956565b6040516101df9190610a25565b60405180910390f35b60008054906101000a900473ffffffffffffffffffffffffffffffffffffffff1673ffffffffffffffffffffffffffffffffffffffff163373ffffffffffffffffffffffffffffffffffffffff161461024057600080fd5b34600260008282546102529190610b58565b925050819055507f3f97c21afc269ab362675e4fa557f139cf4da896b59609e039adeeb21911613860405160405180910390a1565b3073ffffffffffffffffffffffffffffffffffffffff1663d02db052336040518263ffffffff1660e01b81526004016102c09190610bbd565b600060405180830381600087803b1580156102da57600080fd5b505af11580156102ee573d6000803e3d6000fd5b50505050565b6000600160003373ffffffffffffffffffffffffffffffffffffffff1673ffffffffffffffffffffffffffffffffffffffff16815260200190815260200160002054905090565b60016020528060005260406000206000915090505481565b6000600254905090565b60008054906101000a900473ffffffffffffffffffffffffffffffffffffffff1673ffffffffffffffffffffffffffffffffffffffff163373ffffffffffffffffffffffffffffffffffffffff16146103b557600080fd5b60005b60038054905081101561041f5761040c600382815481106103dc576103db610bd8565b5b9060005260206000200160009054906101000a900473ffffffffffffffffffffffffffffffffffffffff166106d4565b808061041790610c07565b9150506103b8565b503373ffffffffffffffffffffffffffffffffffffffff16ff5b80600254101561047e576040517f08c379a000000000000000000000000000000000000000000000000000000000815260040161047590610cac565b60405180910390fd5b80600260008282546104909190610ccc565b9250508190555080600160003373ffffffffffffffffffffffffffffffffffffffff1673ffffffffffffffffffffffffffffffffffffffff16815260200190815260200160002060008282546104e69190610b58565b925050819055507f91cb0850ee560115ebfdfd2d76f5afffdb13a45445011f9be6bf88a5ae8485a233600160003373ffffffffffffffffffffffffffffffffffffffff1673ffffffffffffffffffffffffffffffffffffffff1681526020019081526020016000205460405161055d929190610d00565b60405180910390a150565b80600160003373ffffffffffffffffffffffffffffffffffffffff1673ffffffffffffffffffffffffffffffffffffffff1681526020019081526020016000205410156105ea576040517f08c379a00000000000000000000000000000000000000000000000000000000081526004016105e190610d9b565b60405180910390fd5b80600160003373ffffffffffffffffffffffffffffffffffffffff1673ffffffffffffffffffffffffffffffffffffffff16815260200190815260200160002060008282546106399190610ccc565b9250508190555080600260008282546106529190610b58565b925050819055507f2f0df1e3b5d7193c02489f8177404260854bba479d5512f7f51d7e5148b1e71d33600160003373ffffffffffffffffffffffffffffffffffffffff1673ffffffffffffffffffffffffffffffffffffffff168152602001908152602001600020546040516106c9929190610d00565b60405180910390a150565b6000600254101561071a576040517f08c379a000000000000000000000000000000000000000000000000000000000815260040161071190610cac565b60405180910390fd5b6000600160008373ffffffffffffffffffffffffffffffffffffffff1673ffffffffffffffffffffffffffffffffffffffff1681526020019081526020016000205490506000600160008473ffffffffffffffffffffffffffffffffffffffff1673ffffffffffffffffffffffffffffffffffffffff1681526020019081526020016000208190555060008273ffffffffffffffffffffffffffffffffffffffff16826040516107c990610dec565b60006040518083038185875af1925050503d8060008114610806576040519150601f19603f3d011682016040523d82523d6000602084013e61080b565b606091505b505090508061084f576040517f08c379a000000000000000000000000000000000000000000000000000000000815260040161084690610e4d565b60405180910390fd5b505050565b34600160003373ffffffffffffffffffffffffffffffffffffffff1673ffffffffffffffffffffffffffffffffffffffff16815260200190815260200160002060008282546108a39190610b58565b925050819055506108b33361095e565b61091b576003339080600181540180825580915050600190039060005260206000200160009091909190916101000a81548173ffffffffffffffffffffffffffffffffffffffff021916908373ffffffffffffffffffffffffffffffffffffffff1602179055505b7f07b05dda14be236904a87f2818f6f1979eee34ca6f67fc5d014b048e9ccc6c6b333460405161094c929190610d00565b60405180910390a1565b600047905090565b600080600090505b600380549050811015610a01578273ffffffffffffffffffffffffffffffffffffffff166003828154811061099e5761099d610bd8565b5b9060005260206000200160009054906101000a900473ffffffffffffffffffffffffffffffffffffffff1673ffffffffffffffffffffffffffffffffffffffff16036109ee576001915050610a07565b80806109f990610c07565b915050610966565b50600090505b919050565b6000819050919050565b610a1f81610a0c565b82525050565b6000602082019050610a3a6000830184610a16565b92915050565b600080fd5b600073ffffffffffffffffffffffffffffffffffffffff82169050919050565b6000610a7082610a45565b9050919050565b610a8081610a65565b8114610a8b57600080fd5b50565b600081359050610a9d81610a77565b92915050565b600060208284031215610ab957610ab8610a40565b5b6000610ac784828501610a8e565b91505092915050565b610ad981610a0c565b8114610ae457600080fd5b50565b600081359050610af681610ad0565b92915050565b600060208284031215610b1257610b11610a40565b5b6000610b2084828501610ae7565b91505092915050565b7f4e487b7100000000000000000000000000000000000000000000000000000000600052601160045260246000fd5b6000610b6382610a0c565b9150610b6e83610a0c565b9250827fffffffffffffffffffffffffffffffffffffffffffffffffffffffffffffffff03821115610ba357610ba2610b29565b5b828201905092915050565b610bb781610a65565b82525050565b6000602082019050610bd26000830184610bae565b92915050565b7f4e487b7100000000000000000000000000000000000000000000000000000000600052603260045260246000fd5b6000610c1282610a0c565b91507fffffffffffffffffffffffffffffffffffffffffffffffffffffffffffffffff8203610c4457610c43610b29565b5b600182019050919050565b600082825260208201905092915050565b7f6e6f7420656e6f75676820746f6b656e20696e20636f6e747261637400000000600082015250565b6000610c96601c83610c4f565b9150610ca182610c60565b602082019050919050565b60006020820190508181036000830152610cc581610c89565b9050919050565b6000610cd782610a0c565b9150610ce283610a0c565b925082821015610cf557610cf4610b29565b5b828203905092915050565b6000604082019050610d156000830185610bae565b610d226020830184610a16565b9392505050565b7f6e6f7420656e6f75676820746f6b656e20696e20706c617965722062616c616e60008201527f6365000000000000000000000000000000000000000000000000000000000000602082015250565b6000610d85602283610c4f565b9150610d9082610d29565b604082019050919050565b60006020820190508181036000830152610db481610d78565b9050919050565b600081905092915050565b50565b6000610dd6600083610dbb565b9150610de182610dc6565b600082019050919050565b6000610df782610dc9565b9150819050919050565b7f4661696c75726520746f20776974686472617700000000000000000000000000600082015250565b6000610e37601383610c4f565b9150610e4282610e01565b602082019050919050565b60006020820190508181036000830152610e6681610e2a565b905091905056fea26469706673582212206f8803f49108a64b80e88645aeb1673dfba77b5dfaff26aaf6cee40ea191a79c64736f6c634300080f0033",
  "immutableReferences": {},
  "source": "// SPDX-License-Identifier: MIT\r\npragma solidity >=0.8.0 <0.9.0;\r\n\r\ncontract GamblerToken {\r\n    address owner;\r\n    mapping(address => uint256) public balances;\r\n    uint currentBudgetOfContract;\r\n    address[] playersAddresses;\r\n\r\n    event ReceivedFunds();\r\n    event ContractFundedByOwner();\r\n    event BalanceChange(address player, uint amount);\r\n    event AddGainEvent(address player, uint balance);\r\n    event SubstractLostEvent(address player, uint balance);\r\n\r\n    constructor() payable{\r\n        owner = msg.sender;\r\n        currentBudgetOfContract = msg.value;\r\n    }\r\n\r\n    modifier isOwner {\r\n        require(msg.sender == owner);\r\n        _;\r\n    }\r\n\r\n    function fundProprietaryBudgetOfContract() external payable isOwner{\r\n        currentBudgetOfContract += msg.value;\r\n        emit ContractFundedByOwner();\r\n    }\r\n\r\n    function deposit() external payable {\r\n        balances[msg.sender] += msg.value;\r\n        if(!exist(msg.sender)){\r\n            playersAddresses.push(msg.sender);\r\n        }\r\n        emit BalanceChange(msg.sender, msg.value);\r\n    }\r\n\r\n    function addGain(uint amount) public payable{\r\n        require(currentBudgetOfContract >= amount, \"not enough token in contract\");\r\n        currentBudgetOfContract -= amount;\r\n        balances[msg.sender] += amount;\r\n        emit AddGainEvent(msg.sender, balances[msg.sender]);\r\n    }\r\n\r\n    function substractLost(uint amount) public payable{\r\n        require(balances[msg.sender] >= amount, \"not enough token in player balance\");\r\n        balances[msg.sender] -= amount;\r\n        currentBudgetOfContract += amount;\r\n        emit SubstractLostEvent(msg.sender, balances[msg.sender]);\r\n    }\r\n\r\n    function withDraw() public payable{ \r\n        this.withdrawUser(msg.sender);\r\n    }\r\n    \r\n    function withdrawUser(address user) public payable{\r\n        //checks\r\n        require(currentBudgetOfContract >= 0, \"not enough token in contract\");\r\n        //effects\r\n        uint256 balanceToSend = balances[user];\r\n        balances[user] = 0;\r\n        //interactions\r\n        (bool success, ) = user.call{value:balanceToSend}(\"\");\r\n        require (success, \"Failure to withdraw\");\r\n    }\r\n\r\n    function getBalance() public view returns (uint256){\r\n        return balances[msg.sender];\r\n    }\r\n\r\n    function getTotalBalanceInContract() public view returns (uint256){\r\n        return address(this).balance;\r\n    }\r\n\r\n    function getCurrentBudgetOfContract() public view returns (uint256){\r\n        return currentBudgetOfContract;\r\n    }\r\n\r\n    /* La fonction retourne true si l'adresse est dans l'array playersAdresses\r\n       C'est une fct utilitaire qui permet d'eviter les doublons d'adresses*/\r\n    function exist(address addr) private view returns(bool){\r\n        for(uint i =0; i < playersAddresses.length; i++){\r\n            if(playersAddresses[i] == addr){\r\n                return true;\r\n            }\r\n        }\r\n        return false;\r\n    }\r\n\r\n    /* La fonction est appelable uniquement par le proprio.\r\n       Retourne les fonds des joueurs qui ont leurs addresses dans l'array\r\n       Apres le contrat s'auto detruit*/\r\n    function selfDestruct() public isOwner {\r\n        for(uint i =0; i < playersAddresses.length; i++){\r\n            withdrawUser(playersAddresses[i]);\r\n        }\r\n        selfdestruct(payable(msg.sender));\r\n    }\r\n}\r\n",
  "sourcePath": "C:\\Othm\\UDEM_COURS\\IFT4100\\smart-contract\\contracts\\GamblerToken.sol",
  "compiler": {
    "name": "solc",
    "version": "0.8.15+commit.e14f2714.Emscripten.clang"
  },
  "schemaVersion": "3.4.7",
  "updatedAt": "2022-07-20T08:18:50.571Z",
  "devdoc": {
    "kind": "dev",
    "methods": {},
    "version": 1
  },
  "userdoc": {
    "kind": "user",
    "methods": {},
    "version": 1
  }
}